:100000005AC3000091C300008FC300008DC30000DD
:100010008BC3000089C3000087C3000085C30000B4
:1000200083C3000081C300000C94DF2D0C94AB2E21
:100030000C94C62879C3000077C3000075C3000084
:1000400073C3000071C300006FC300006DC30000E4
:100050006BC300000C943D2967C3000065C300001A
:1000600063C3000061C300005FC300005DC3000004
:100070005BC3000059C3000057C3000055C3000014
:1000800053C3000051C300004FC300004DC3000024
:100090004BC3000049C3000047C3000045C3000034
:1000A00043C3000041C300003FC30000A900AA00F1
:1000B000BD00BE0029001E002000220024002600F2
:1000C0002D0031004A00000035001F0021002300F0
:1000D000250027002E004C004B00140008001700DC
:1000E000180012002F0000002A0000002B001A0048
:1000F00015001C000C00130030004D004E000400E1
:1001000007000A000D000F0034000000000000008E
:10011000E000160009000B000E003300280000006C
:100120000000E1001B00190011003600380000003B
:100130005200000000001D000600050010003700FE
:10014000E500A80000002152E2000000AE410000DE
:10015000E442000051000000E30000002C00000019
:10016000E641000050004F0001003A003C003E0014
:1001700040004200440001000100000001003B007B
:100180003D003F0041004300450001000100010027
:100190000100010001000100010000000100000059
:1001A0000100010001000100010001000100010047
:1001B0000100010001000100010001000100000038
:1001C0000000000001000100010001000100010029
:1001D0000100000000000100010001000100010019
:1001E000010000000100000000000100010001000A
:1001F00001000100010001000000010001000000F9
:1002000001000000010000000100000001000000EA
:100210000100000001000000010001001E0F0500A8
:10022000047F3F1F643214643214783C1E1E140A8B
:10023000052223252628292A2C2D2F303233353626
:10024000383A3B3D3E4042434547494A4C4E505167
:10025000535557595A5C5E6062646668696B6D6F8E
:1002600071737577797B7D7F81838587898A8C8E91
:1002700090929496989A9C9E9FA1A3A5A7A8AAAC99
:10028000AEAFB1B3B4B6B8B9BBBCBEBFC1C2C3C5D3
:10029000C6C7C9CACBCCCDCED0D1D2D2D3D4D5D675
:1002A000D7D7D8D9D9DADADBDBDBDCDCDCDCDCDDA8
:1002B000DDDDDDDCDCDCDCDCDBDBDBDADAD9D9D88C
:1002C000D7D7D6D5D4D3D2D2D1D0CECDCCCBCAC924
:1002D000C7C6C5C3C2C1BFBEBCBBB9B8B6B4B3B153
:1002E000AFAEACAAA8A7A5A3A19F9E9C9A989694EE
:1002F00092908E8C8A89878583817F7D7B797775C3
:1003000073716F6D6B6968666462605E5C5A5957A1
:10031000555351504E4C4A4947454342403E3D3B60
:100320003A3836353332302F2D2C2A2928262523EA
:1003300022FFAA7F554000010101010101010101D5
:100340000202020202020202020303030303030386
:100350000304040404040404050505050506060653
:100360000606070707070708080808090909090A10
:100370000A0A0B0B0B0C0C0C0D0D0D0E0E0E0F0FB5
:100380000F10101111111212131314141515161643
:100390001717181819191A1A1B1B1C1D1D1E1E1FB2
:1003A0002020212222232424252626272829292A01
:1003B0002B2C2D2D2E2F3031323233343536373829
:1003C000393A3B3C3D3E3F40414243444546474825
:1003D000494A4C4D4E4F50515354555658595A5BFB
:1003E0005D5E5F616264656668696B6C6D6F70729B
:1003F000737577787A7B7D7E8082838587888A8C07
:100400008E8F91939596989A9C9EA0A2A3A5A7A93A
:10041000ABADAFB1B3B5B7BABCBEC0C2C4C6C9CB31
:10042000CDCFD1D4D6D8DBDDDFE2E4E7E9EBEEF0E7
:10043000F3F5F8FAFDFF00000000000000002A2B91
:100440002800000000000000000000000000000084
:100450000029000000002C1E3420212224342627ED
:10046000252E362D3738271E1F202122232425260E
:100470003333362E37381F0405060708090A0B0CDC
:100480000D0E0F101112131415161718191A1B1C24
:100490001D2F3130232D350405060708090A0B0CE2
:1004A0000D0E0F101112131415161718191A1B1C04
:1004B0001D2F3130354C000000000000000000000E
:1004C000000000000000000000000000000000002C
:1004D000000000000000000000007E0F00D4FFFFBD
:1004E000FFC700000078320363006C0065006900FC
:1004F0006E002F0063006C00370030002F00660094
:100500006F0072005F0065006400750063006100A9
:10051000740069006F006E0000000C0343006C0063
:10052000650069006E0000000403090409025B0015
:10053000030100A0FA0904000001030101000921E0
:10054000110100012244000705810308000109048C
:100550000100020300000009211101000122220014
:100560000705820320000107050303200001090499
:100570000200010300000009211101000122B60060
:100580000705840320000112010002000000083763
:10059000C170C10001010200010660FF0961A101F3
:1005A0000962150026FF0095207508810209631570
:1005B0000026FF00952075089102C005010902A1DF
:1005C0000185020901A10005091901290815002565
:1005D0000195087501810205010930093115812550
:1005E0007F95027508810609381581257F9501756B
:1005F000088106050C0A38021581257F95017508CA
:100600008106C0C005010980A101850319012AB72F
:1006100000150126B700950175108100C0050C0971
:1006200001A101850419012AA002150126A0029545
:100630000175108100C005010906A10185060507A5
:1006400019E029E7150025019508750181020507C4
:10065000190029EF1500250195F0750181020508A3
:1006600019012905950575019102950175039101FF
:10067000C005010906A101050719E029E7150025B4
:100680000195087501810295017508810105071919
:100690000029FF150026FF00950675088100050852
:1006A000190129051500250195057501910295018E
:1006B00075039101C00011241FBECFEFDAE0DEBF49
:1006C000CDBF04B603FE19C08091150490911604A5
:1006D000A0911704B09118048730904BA740B04BFD
:1006E00061F41092150410921604109217041092DF
:1006F0001804E0E0F8E3099500C012E0A0E0B1E0E2
:10070000EEE4F5E602C005900D92A830B107D9F7E6
:1007100024E0A8E0B2E001C01D92A531B207E1F7E4
:100720000E94EB120C94F4316BCC279A0895CF936E
:10073000C82F63E01FD5811521F02F9A8C2FCF9100
:1007400008952F98FBCF8230E0F46A30D0F449301E
:10075000C0F450E099E0699F400D511D112490E0D4
:100760009195819591098A7590E0FC01E40FF51F40
:10077000EE0FFF1FEC54FF4F85919491282F822F8D
:10078000089521E090E0FBCF823098F4611111C010
:1007900090E0880F991F21E04227840F911DFC01F2
:1007A000EE0FFF1FE455FF4F85919491282F822F64
:1007B000089521E090E0FBCF81E0089581E0089565
:1007C000FBCF089581E0089581E00895FDCF08955D
:1007D00008950895FDCF089508950895A6E0B0E026
:1007E000E4EFF3E00C94E33049835A839E83309125
:1007F0000F0289819A81311117C03E81311589F02C
:10080000211579F07CD5182F682F89819A8147D5D9
:1008100069817A81812F0E94B80F2696E3E00C94BB
:10082000FF3056D5182FF4CF6AD569817A81F3CF7E
:10083000FC01262F408151816281738184819581E1
:10084000CDCFCF93DF93EC0161E0F2DFBE01B6DFE5
:10085000811529F061E0CE01EBDFBE01B1DFDF9150
:10086000CF9108950F931F93CF93DF93EC0160E036
:10087000DFDF8C01BE01ADDFBE01C801ABDFDF9160
:10088000CF911F910F9108950F931F93CF93DF93F3
:10089000EC0161E0CDDF8C018D8181110E949E19F8
:1008A000BE01C8018FDF811106C080E0DF91CF91CA
:1008B0001F910F910895BE01C80188DF8115A9F32A
:1008C000BE01C8010E94C824811579F3BE01C80188
:1008D0000E940524811549F3BE01C8010E947A1FB8
:1008E000811519F3BE01C8010E944F1F8115E9F25D
:1008F000BE01C8010E9403138115B9F2BE01C801EF
:100900000E944524811589F2BE01C8010E94C510CC
:10091000811559F2BE01C8010E94D710811529F234
:10092000BE01C8010E94F110C1CF91E001C0990F32
:100930008A95EAF7892F05C4CF93C82F81E00C2E42
:1009400001C0880F0A94EAF70E94BD0D8C2FEDDFDD
:10095000CF91089581E0089581E00895FBCF089537
:10096000CF93C82F9FD38C2FF7DF8C2FF7DF8FEF1C
:1009700094E32CE0815090402040E1F700C000005B
:10098000CF91089581E0ECDF0C94612980E0E8DFED
:100990000C94852921DF0E949D2829D00C943318BE
:1009A00028D00E94EE1819DF0C94A12881E0089548
:1009B00081FF05C02A9A82FF04C0769A08952A987A
:1009C000FACF76980895CF93DF93C82FEFDFD82F13
:1009D000811511F08C2FECDF8D2FDF91CF910895D1
:1009E000229A2A986E9A76980895EDCF089580E01D
:1009F000FCCF0E948626F9CFCF930E948626C82F6F
:100A000080910A028C1771F0C0930A020E9431296A
:100A100060930B0270930C0280930D0290930E0270
:100A20008C2FE3DFCF910895ADE0B0E0EAE1F5E08F
:100A30000C94E430488759876A877B878C879D8729
:100A4000911186D71F8286E0FE0138969E012F5FA6
:100A50003F4FD90101900D928A95E1F78D81811167
:100A60000CC029813A814B815C816D817E818F81AF
:100A7000BAD62D96E2E00C940031CE010196E1DE6B
:100A80008111EFCFF6CFFC012481213019F4808150
:100A9000918161C40895611521F00E94D6200C94C3
:100AA0008B210E941621FBCFCF93C82F8115B9F05F
:100AB0008238B9F40E94952681FD11C089E30E9415
:100AC000CF27D1D78FEF97EE23E081509040204081
:100AD000E1F700C0000089E30E94E627C4D7CF9168
:100AE0000895833899F40E94952680FDF8CF83E518
:100AF0000E94CF27B8D78FEF91EE24E0815090402D
:100B00002040E1F700C0000083E5E6CF843899F487
:100B10000E94952682FDE3CF87E40E94CF27A3D7CA
:100B20008FEF91EE24E0815090402040E1F700C02B
:100B3000000087E4D1CF8450813A90F48C2F0E943A
:100B4000C71B8111CCCF8C2F0E944927811521F022
:100B50008C2F0E94E62787D78C2F0E94CF27BECFED
:100B60008C2F805E883048F481E0C1FD84E0C0FDB8
:100B7000880FC2FD8295CDD6B1CF8C2F855A833098
:100B800030F48C2F8452990B0E94C826A8CFEC2FEA
:100B9000E85AEB3150F4F0E0EE0FFF1FEA5CFE4F35
:100BA000808191810E94EF269ACF8C2F8D5C8331BA
:100BB00008F095CF61E08C2F6EDF91CF811509F49D
:100BC0004EC0823861F40E94952681FF48C089E3B7
:100BD0000E94CF2748D789E30E94E62744C783387D
:100BE00051F40E94952680FF3AC083E50E94CF27EA
:100BF0003AD783E5F1CF843851F40E94952682FFDD
:100C00002EC087E40E94CF272ED787E4E5CF982F08
:100C10009450913A08F3982F905E983050F4982FA2
:100C200081E091FD84E090FD880F92FD829577D65A
:100C3000D5CF982F955A933020F480E090E00C9413
:100C4000C826982F985A9B3120F480E090E00C94AD
:100C5000EF26982F9D5C933110F460E01CCF08952F
:100C60001F93CF93DF93182FEB011EDF209731F4F2
:100C7000812FA4DFDF91CF911F9108958FE99FE02D
:100C80000197F1F700C000002197F0CF60E570E018
:100C9000893311F060E070E0E3CF811511F039D6AF
:100CA000E2C60895811511F03AD6DDC60895A0E098
:100CB000B0E0EDE5F6E00C94DE306C01D62FC72FE6
:100CC000FC011581068102950F7018D6E82E81155A
:100CD000E9F0E12E1115D1F08C2F807F803461F086
:100CE0008D2F805E8830E0F08C2F807E803221F462
:100CF000D230B0F00115A1F08091970382FF10C0AF
:100D000082E0D5D6FBD591E08927E82EEC2FE2953D
:100D1000EF70C03C78F5F0E0EA50FE4C0C94B73030
:100D2000E12CF4CF0C2F0F70C03110F00295007F32
:100D3000111581F0011549F08D2F805E883010F07B
:100D4000D11105C0802FE5D58ED68D2F40C0802FC4
:100D5000F1D5FACF8D2F32DF011561F08D2F805E36
:100D6000883010F0D11103C0802FD9D502C0802F58
:100D7000E7D579D6E11409F4AEC0BCD580FDABC08F
:100D8000F6011582B1D50CD2C6015DD1ADD511D217
:100D9000A2C08C2F8F70F82EC07FC03219F0F29451
:100DA00080EFF822D13038F079F1111509F438C00C
:100DB0000115C9F0CACF8091970382FD10C01115AB
:100DC00041F0F11419F08F2DA4D54DD680E06CDEE2
:100DD000D1CF80E0F3DEF11469F28F2DC6CF11156B
:100DE00051F0013018F48F2D58DFC4CF09F0C2CF75
:100DF0008F2DC2D5BFCF0111BDCF8F2D53DF8F2DCA
:100E0000C6D58F2DABD5B6CF111521F0063008F021
:100E1000B1CFE9CF053008F0ADCF8F2D43DFAACF9A
:100E20000115D9F3D93349F48FEF97EE23E08150C0
:100E300090402040E1F700C000008D2FBFDE9ACF28
:100E40008C2F869586958370813060F009F092CF63
:100E50008D2F9C2F9370111102C080E090E00E94B2
:100E6000EF2688CF8D2F9C2F9370111102C080E048
:100E700090E00E94C8267ECF612F8D2F0CDE7ACFA6
:100E80008C2F837099F5111123C09D2F9295969503
:100E90009770990F990F4D2F4F70092E01C0440F75
:100EA0000A94EAF78D2F8071D4FF07C02FE001C0AC
:100EB000220F9A95EAF7822F8095C695C695C37042
:100EC000842BC23079F0C33079F0C13049F03FD182
:100ED0000E9486268ADDCDB7DEB7E8E00C94FA30B2
:100EE00032D1F6CF38D1F4CF2CD1F2CF111531F168
:100EF000C0FFEECF9D2F929596959770990F990F01
:100F00004D2F4F70092E01C0440F0A94EAF78D2F20
:100F10008071D4FF07C02FE001C0220F9A95EAF735
:100F2000822F8095C695C695C370842BC23059F028
:100F3000C33059F0C13029F054D1CACF823040F2C9
:100F4000D9CF4BD1C5CF51D1C3CF0DD1C1CFCF70E8
:100F5000111529F08C2F24D18D2F9FDEB9CF8D2F25
:100F6000A1DE8C2F26D1B4CFD23F31F168F4D03F2F
:100F7000C1F0D13F89F0111509F43EC0011509F403
:100F800038C08D2F91DDA4CFD33FE1F0D43F99F746
:100F90008091970382FD1EC08C2F8F71111511F364
:100FA0000FC0111539F0053008F092CF8C2F8F71DA
:100FB0000BD18ECF0630F8CF8C2F8F711111D2CF7D
:100FC000EFD086CF111521F08C2F8F71E2D080CF1A
:100FD000CFD07ECF111529F063E08C2F8F7150D5C3
:100FE00077CF81E064D5023008F472CF82E05FD51C
:100FF0006FCF8C2F8F71E4CF011571F0D93349F485
:101000008FEF97EE23E0815090402040E1F700C041
:1010100000008D2FD3DD5CCF8C2F8F71A3CF0F936A
:101020001F93CF93DF93EC01688179818D819CD1EF
:101030008C01DFD085D0B801CE0139DEDF91CF91B0
:101040001F910F910895CF93DF93EC018C8181154F
:1010500081F0CE0119DC81110FC050D4811549F007
:101060008D81811531F08091970382FF02C082E06B
:101070001ED5DF91CF910895CE01D1DFCE01F2DBF5
:10108000F8CF80E090E00E94C82680E090E00E94C7
:10109000EF265ED4E8D40E94A4210C948B210E94F8
:1010A000FD27EFCF44D4FBCF282F92959F70963029
:1010B00099F060F4925F9F70923030F4203FB1F06D
:1010C00038F481E0283E38F080E008959A5FF3CF4D
:1010D00081E0243FC9F7089591E0813F09F090E055
:1010E00081E0283E08F080E0892B089581E0089592
:1010F000FC012481211521F0808191812CD1D4CF54
:1011000080E00895A6E0B0E0E8E8F8E00C94E43070
:101110002696E2E00C940031A7E0B0E0E2E9F8E0C6
:101120000C94E4302796E2E00C9400310895FECF51
:101130000895FDCF0895FADFFCDF8093380208950B
:101140000895F9CF089590913802892BF4CF9091AA
:1011500038028923F0CF909138028927ECCFE7CA73
:101160000895E4CF0895FDDFFADF809337020895F4
:1011700080E0F9CF811105C081E0611549F080E080
:10118000089590E002C0959587956A95E2F7817081
:10119000089591E001C0990F8A95EAF7892FE3CF6E
:1011A00021E001C0220F8A95EAF780913702822B55
:1011B000DACF21E001C0220F8A95EAF7822F8095CD
:1011C000909137028923CFCF21E001C0220F8A9569
:1011D000EAF7809137028227C6CF90913702892B98
:1011E000C2CF909137028923BECF909137028927D1
:1011F000BACF0895CF93C1E061FDC4E060FDCC0F8C
:1012000062FDC29593E0769567959A95E1F79B010B
:10121000220F331F260F371F420F531FFA0140E0E2
:1012200050E090E06191DF019C01042E02C03695F0
:1012300027950A94E2F72695220B26272C232627AA
:101240002E934F5F5F4F4330510561F7CF91089563
:10125000A82FA77023E0969587952A95E1F79C0122
:10126000220F331F820F931F680F791FFB0140E08D
:1012700050E080E0219130E00A2E02C0369527959B
:101280000A94E2F72170042E01C0220F0A94EAF7B3
:10129000822B4F5F5F4F4330510561F70895282F30
:1012A000862F9A3068F4293050F4622F70E029E0DC
:1012B000929F600D711D112443E152E09BCF089570
:1012C0009C5F9230E0F7622F70E040E152E0F6CF91
:1012D000292F9A3058F4893080F490E063E172E06D
:1012E00039E0239F800D911D1124B2CF2C5F223055
:1012F00020F460E172E090E0F8CF80E00895CF92B2
:10130000DF92FF920F931F93CF93DF936C010091B5
:10131000370280913802082BC3E0D0E010E0C8010A
:101320000C2E02C0959587950A94E2F780FD0CC0BB
:101330002197A8F7F12C8F2DDF91CF911F910F915D
:10134000FF90DF90CF900895FC2EB6018C2F27D60A
:10135000019771F3F0CFCF93DF93EC01D0DFBE01A3
:101360001ED6DF91CF9108950F931F93CF938B01DA
:1013700090910F02911531F0CB01EDDFCF911F91CC
:101380000F910895811551F0CB01B9DFC82F682F57
:10139000C80185DFB8018C2F02D6F0CFCB0198DFD2
:1013A000C82FF8CFE1E0F0E0DF0101C0AA0F6A9595
:1013B000EAF76A2FDF0101C0AA0F4A95EAF76A2B04
:1013C00001C0EE0F2A95EAF7962F9823961302C0D4
:1013D0008E2B0895E0958E230895242F462F682F95
:1013E00080913702DFDFBFCE0F931F930091390248
:1013F00080913A02801303C01F910F91089587E0F6
:10140000089FF0011124E55CFD4F2081318142816C
:1014100053816481758186817FDE0F5F1F4F077066
:10142000E7CF209173023091740240917502509180
:1014300076026091770270917802809179026CCE89
:1014400080917902803170F480917802811551F099
:10145000E091390220913A02309174024091730276
:101460002E1301C00895BF0187E0E89FF001112409
:10147000DF01A55CBD4F14968C911497811549F13D
:1014800011968C911197831324C08C91841321C0E1
:1014900015968C91159781111CC012968D919D9176
:1014A000A0917502B09176028A1B9B0B883C910536
:1014B00080F4809179028F70806180937902EF5B74
:1014C000FD4F80818F708061808383E792E0BBDD78
:1014D0008BCF6F5F7F4FFB01E770C2CFE091390286
:1014E00090913A02E91302C080E008959F0157E00D
:1014F000E59FF0011124E55CFD4F5181561306C0B4
:101500005081581303C05581541305C02F5F3F4FBE
:10151000F901E770E7CF81E008958F929F92AF9233
:10152000BF92DF92EF92FF920F931F93CF93DF93BF
:10153000CDB7DEB72D970FB6F894DEBF0FBECDBF87
:101540008C0186E0F801DE01189601900D928A95D3
:10155000E1F7F801F580848193E7892E92E0992ED6
:1015600090917702911117C0811509F4EFC0F11421
:1015700009F42EC1C801BCDD811509F429C187E039
:10158000F801D40101900D928A95E1F7C4017BDA4C
:1015900057DF47DFDBC0E080A280B380D0907802C5
:1015A0002091750230917602A501421B530BD11494
:1015B00009F4CFC0483C510508F09EC0811509F4DC
:1015C000C5C090917402918080917902803108F0B9
:1015D00065C0991226C0909173029E1122C0F1102D
:1015E00057C08F708061809379021BDF83E792E0A0
:1015F0002ADD80917902F8018683F12C8F2D2D96BA
:101600000FB6F894DEBF0FBECDBFDF91CF911F9113
:101610000F91FF90EF90DF90BF90AF909F908F90D1
:101620000895F11035C040E0692D8E2D57DF40E060
:10163000692D8E2D53DFF82E8111DFCF8885998596
:101640008ADE292F22952F70903450F49F7022301B
:1016500078F0911591F0F8019681903170F4CECF29
:101660002A5F2F70223070F0C801EDDCFD2CC6CF50
:10167000911519F0811509F4C1CF805E883008F406
:10168000BDCFF2CF803F08F4B9CF815F8330F7CF71
:1016900080917902816080937902AFCF991207C05F
:1016A000909173029E1103C0F11409F473C0C80134
:1016B0001FDD811509F48CC0F11409F489C08091F3
:1016C0007902803280F02091730230917402298374
:1016D0003A83AB82BC82909177029D831E828F8376
:1016E000CE010196B0DC87E0F801A3E7B2E00190FB
:1016F0000D928A95E1F74CCF90917902903188F460
:10170000488559856A857B858C859D85FBDC83E7CB
:1017100092E099DCF40187E011928A95E9F781DE85
:101720006CCF811599F02091740281812813BFCF6D
:10173000809173028E11BBCFF110B9CF9683C8018F
:1017400082DCF40187E011928A95E9F7FF24F39493
:1017500055CF483C510508F03EC08115B9F3F1144E
:10176000B9F1909174028181981329C0809173021C
:101770008E1125C08091790280FD18C08031B0F0B3
:101780008683807F803F39F08681982F907F905F9D
:101790008F70892B8683C80156DC87E0F801A3E7A8
:1017A000B2E001900D928A95E1F7F3CE87E0F8015F
:1017B000A3E7B2E001900D928A95E1F7C7CFC80187
:1017C00097DC811190CF80917902816080937902BA
:1017D000C80139DCBBCF488559856A857B858C85F6
:1017E0009D8590DC97CFAEE0B0E0E9EFFBE00C9494
:1017F000E330288739874A875B876C877D878E87A8
:10180000CE0108968ADE6C85811599F0611539F054
:10181000288539854A855B857D858E857DDC80912F
:10182000390290913A0289133DC02E96E3E00C9460
:10183000FF3087E09E01285F3F4FF90127503109B3
:10184000D90101900D928A95E1F7611541F3A091BC
:101850003A028A2F90E08395877090E0AC01209146
:1018600039022417150691F097E09A9FD0011124B0
:10187000A55CBD4F9E012F5F3F4FF90101900D9276
:101880009A95E1F740933A02AFDDC9CF0BDC109295
:101890003A0210923902E3E7F2E087E011928A956A
:1018A000E9F7BDCF17E0189FC0011124855C9D4F5B
:1018B00034DE811509F4B9CFE09139021E9FF001A1
:1018C0001124E55CFD4F2081318142815381648187
:1018D0007581868121DC8091390290913A020196CE
:1018E0008770809339029BCF8091A202869586955E
:1018F000869508958091A202877008959091A20222
:10190000977081E0911101C080E008958091CE022E
:1019100008959091CE02982B9093CE0208958095D1
:10192000982F8091CE0289238093CE020895109241
:10193000CE0208959091CD02982B9093CD020895F8
:101940008095982F8091CD0289238093CD020895B0
:101950001092CD0208950895FECF08959091A302AC
:10196000292F282329F0809589238093A302F4CF7F
:1019700008950895FECF08959091A402292F282359
:10198000281721F0982B9093A402F4CF08959091FA
:10199000A402292F282329F0809589238093A4026B
:1019A000E9CF08958091A402811521F01092A4023C
:1019B00080E0E0CF0895CF93C091CE028091CD0218
:1019C000C82B8091A402811529F0C82B0E942327DF
:1019D0008111E8DF8C2FCF910895CF93DF93C091D1
:1019E0000601D0910701E7DF8883C0910601D091FD
:1019F000070148E050E06AE972E0CE010E946D31D3
:101A0000892B59F088E0FE01AAE9B2E001900D921D
:101A10008A95E1F7CE010E949726DF91CF91089534
:101A2000CF93DF93C0910401D0910501C4DF898376
:101A3000C0910401D091050140E250E06AE772E0F4
:101A4000CE010E946D31892B59F080E2FE01AAE798
:101A5000B2E001900D928A95E1F7CE010E94A42692
:101A6000DF91CF9108950E947F26811529F0809102
:101A7000960387FF01C0D4CFB0CF0895FECF08955D
:101A80009091970392FF0EC0982F990F990F990F7D
:101A9000962B9093A20284DB8091A2028695869574
:101AA0008695ECCF7DCB1092A20280E0E7CF90919B
:101AB000A202809589238093A202282F277059F4CF
:101AC000891749F09091970392FF05C086958695F6
:101AD00086956FDBE8CF08959091970392FB2227BC
:101AE00020F9281749F080FB92F99093970386E933
:101AF00093E047D082E0DBCF0895809197030024E4
:101B000082FF0394802DE8CF81E0E6CF80E0E4CF30
:101B100080E090E0BC0117C480E090E0BC010DD4EF
:101B2000F7CFA3E0B0E0E7E9FDE00C94E43073D335
:101B30007ED31B82CE01039691D381E0809338023D
:101B400097D380E8898384E18A83CE010196A1D36B
:101B500063D60E94B124E0DF2396E2E00C940031CA
:101B6000E0CF08956AC3089557D381110C94792466
:101B7000089569C3089578C308957AC308957DC30D
:101B8000089587C308958CC30895BEC30895E1C323
:101B90000895A6E0B0E0EFECFDE00C94E2300E9486
:101BA00025298C018091CF029091D0028017910756
:101BB00079F019821A820E942529BC0149815A8133
:101BC00080E090E00E9414050093CF021093D002B1
:101BD0002696E4E00C94FE300E9431296093ED02D9
:101BE0007093EE028093EF029093F0026093E9020B
:101BF0007093EA028093EB029093EC0208950E94A6
:101C000031296093ED027093EE028093EF0290937E
:101C1000F0026093E5027093E6028093E7029093EE
:101C2000E802089508950895FDCF08950895FEDF10
:101C3000FBCF0C94950308950895FEDFFACF83EC53
:101C400090E1DCD4F0DFF3CF81E0089581E00895E6
:101C5000FBCF0895089508950895FCDFFCDFFCCFC5
:101C600083DF811101C07CDF81EF92E082DF86E9B2
:101C700093E085DF0E94581B7EDF63DA8091370294
:101C80006ECA0E941C290E94BD240E94A71919D463
:101C9000E7DF0E94F0040E94BC18CFCFA6E0B0E0BE
:101CA000E4E5FEE00C94D930D1DF81110FC071DF83
:101CB0000E949F190E94021A8111A1DF0E94C52172
:101CC0000E94FC042696EDE00C94F5300AD421ED38
:101CD000822E22E0922E740110E0F701C080D180A4
:101CE000812F42D31F5F1A3009F448C022E0E20E70
:101CF000F11CC816D90689F38091F10281FD3DD30C
:101D0000A7DF782E10E0812F2FD37C01F401A19062
:101D1000B1904F018A159B0561F1A826BF2400E010
:101D200091E0C92ED12CC5018C219D21892BC9F0B0
:101D30007114B9F009831A830E9425298B839C832F
:101D400081E08D8321E0C7018C219D21892B09F43D
:101D500020E049815A816B817C818D81922F0E9484
:101D600014050F5FCC0CDD1C0930E9F6F401F2928A
:101D7000E2921F5F1A3039F62FDF9ACFC816D906C4
:101D800009F0BACF94CF0F931F93CF93DF9309D16C
:101D9000EC01D23508F050C0D03508F0C8C0C03EC4
:101DA000D10530F5CD3CD10508F09DC0C83AD1052C
:101DB00078F4C53AD10508F093C0C130D105B1F12E
:101DC000CE010497813A910588F1C0E0D0E02EC0A1
:101DD000CE01885A91094B97C0F7C85AD0E0CC0F72
:101DE000DD1FC459DE4F0990D881C02DD4641EC0B8
:101DF000D034A8F4D03208F0ADC0C83ED105B0F060
:101E0000CE0191509F3108F78D2F6ED1082F8C2F66
:101E100090E0C7D0D02FDF71C82FD92B07C08C2FEF
:101E200090E0BFD0DF70C82FD92BD06ACE01DF91F0
:101E3000CF911F910F910895C03882E5D807B8F56A
:101E4000C03682E5D80708F056C0C03482E5D8070E
:101E5000C8F4C03282E5D80708F047C08C2F8695B9
:101E6000869520E2829FC0011124C37021E030E0FA
:101E700002C0220F331FCA95E2F7E901C82BD92B04
:101E8000DD68D4CF8C2F86958695877020E2829F5F
:101E9000C0011124C37021E030E002C0220F331FC3
:101EA000CA95E2F7E901C82BD92BDC68BFCFC03C4B
:101EB00082E5D80750F48C2F8F71C03AD24580F557
:101EC000982F84EF906AEC01B1CFCE01805C9245EF
:101ED000809708F07ACFDC2FDF71C0EFD06AA6CFF1
:101EE000A497D064A3CFD065A1CF8C2F8F71D82FAA
:101EF000C1EFD06A9BCF8C2F86958695877020E2A4
:101F0000829FC0011124C37021E030E002C0220F83
:101F1000331FCA95E2F7E901C82BD92BDA6886CFBF
:101F2000E3D0982F80E09F71EC01D0627FCF8C2F9F
:101F30008F71DAD053E0CC0FDD1F5A95E1F7DF70D7
:101F4000282F84FF04C090E1899F90011124C22FA3
:101F5000D0696CCF8D2F8F71C7D0082F8C2F90E058
:101F600020D0302F3F71282F392B3062E9015ECF0E
:101F7000462F672F7A3020F4493070F40C94F61C09
:101F80007D3F31F4411108C041E060E00C94001D38
:101F90007C3F11F44115C9F380E090E00895E8DF3B
:101FA000F2CE803E9105D1F1C8F48133910509F458
:101FB00081C048F48932910509F471C08A329105D3
:101FC00009F47FC0089589339105E1F082389105C5
:101FD000C9F08533910509F45DC00895843E9105EB
:101FE000D1F148F4823E910531F1833E910541F1F2
:101FF00081EE90E00895863E9105C1F1873E9105FE
:10200000F1F1089520919603237009F064C02091A6
:10201000970323FF14C089E290E00895209196036E
:1020200020FD45C03091970330FF09C024FD24C036
:1020300083EE90E008952091960322FDF7CF089556
:102040002091960322FD44C03091970330FD43C098
:1020500024FFF5CF11C02091970321FFF0CF80918D
:10206000960384FD09C087EE90E0089520919603C1
:1020700023FFE5CF24FFF7CF80E090E00895209183
:10208000960323FD2BC03091970331FFE1CF84EEFF
:1020900090E008952091960325FFD1CFBCCF2091E9
:1020A000960325FD1EC02091970323FFC8CF89E327
:1020B00090E008952091960326FFC1CF8AE290E038
:1020C00008952091960326FFBACF81E390E008950A
:1020D00082EE90E0089580EE90E0089586EE90E024
:1020E000089585E390E008959091960392FF10C0C3
:1020F00041E0282F2471243009F040E031E0282FFE
:102100002871283009F030E0431711F02CE08227C5
:1021100093FF10C041E0282F2471243109F040E0E2
:1021200031E0282F2871283109F030E0431711F0F1
:102130002CE082273091970330FF10C051E0282F08
:102140002171213009F050E041E0282F287128301A
:1021500009F040E0541711F029E0822731FF10C048
:1021600041E0282F2171213109F040E031E0282F92
:102170002871283109F030E0431711F029E0822757
:1021800094FD877E089580E00895CF939C01205EA2
:102190003245C1E02032310538F4FB01C581C1115F
:1021A00003C08F710E949C048C2FCF9108959C01D5
:1021B000FB018581811599F02B359CE7390769F082
:1021C0002C359CE7390721F02A353C4721F008954A
:1021D00094DC80E0089598DCFCCF98DCFACF81E0B5
:1021E00008959C01FB018581811599F021309CE7C0
:1021F000390761F023309CE7390739F021153C4756
:1022000049F40E94C20480E00895ACDC0E94C60438
:10221000FACF81E00895089580E090E00E94903127
:102220009C0181E0233E3E4F09F080E0089563EE7B
:102230007EEF80E090E00C94BE316FEF7FEF80E0A6
:1022400090E00C94BE31CF93DF93EC0182E090E0FC
:102250000E9483318883DF91CF910895FC016081D2
:1022600082E090E00C94A43183E090E00C94833100
:10227000682F83E090E00C94A431CF93DF93EC01BE
:1022800084E090E00E94903188839983DF91CF9120
:102290000895FC016081718184E090E00C94BE316E
:1022A0008F929F92AF92BF92CF92DF92EF92FF9266
:1022B0000F93CF93DF93EC0188E090E00E948B3185
:1022C0004B015C01688399828A83BB821C821D82D8
:1022D0001E821F8283E290E00E9483319401A50157
:1022E00088823983AA825B838C831D821E821F822F
:1022F000DF91CF910F91FF90EF90DF90CF90BF9043
:10230000AF909F908F9008950F93CF93DF93EC0140
:10231000488159816A817B8188E090E00E94B631D2
:102320006C81262F60E070E0CB01622F83E20E9477
:10233000A431DF91CF910F910895AB01BC018FE0E3
:1023400090E00C94B631AB01BC0183E190E00C94B9
:10235000B631682F8EE090E00C94A4310895FECF42
:1023600008950895FECF0895E82FF0E0EE0FFF1FC7
:10237000E455FC4F808191810895089580EA8A9503
:10238000F1F7089500C00895F9CF0895F894E82F63
:10239000E295EF70F0E041A18F7021E001C0220FC3
:1023A0008A95EAF7922F9095942391A392A1822F78
:1023B000892B82A378940895CF93DF93CBEAD1E061
:1023C00089918F3F09F0E2DF81E0C53BD807C1F773
:1023D000C2EAD1E089918F3F09F0D8DF81E0CB3AA2
:1023E000D807C1F7DF91CF910895AF92BF92DF92E6
:1023F000EF92FF920F931F93CF93DF935C01D62E42
:10240000C62FD0E08E0105551E4FF80180818F3F09
:1024100009F44BC0F894E82FE295EF70F0E091A139
:102420008F7021E001C0220F8A95EAF7892F822B55
:1024300081A382A12095282322A37894A3DFE2EA36
:10244000F1E021E030E0E12CF12C41914F3F79F0B7
:10245000A42FA295AF70A05EB0E08C9190E04F7079
:1024600002C0959587954A95E2F780FF28C080E0E5
:1024700090E0E82AF92A220F331F81E0EB3AF807AF
:1024800021F7F80180818F3F09F080DF61E0E114DE
:10249000F10409F460E08D2D77DFCC0FDD1FC5015D
:1024A0008C0F9D1FEC01E882F982DF91CF911F9183
:1024B0000F91FF90EF90DF90BF90AF900895C9010A
:1024C000D8CF7ADFECEAF3E084E111928A95E9F75C
:1024D000E8E9F3E084E111928A95E9F78AE03DD0DA
:1024E0003ECFA4E1B0E0E7E7F2E10C94E130FE0179
:1024F0003196DF0184E11D928A95E9F710E00E2FF5
:10250000FF2E612F802F9F2D70DF812F8F5F182F5F
:102510008A30B9F744E150E0602F7F2D88E993E0DD
:102520000E946D3121E0892B71F420E04AE06CEAD1
:1025300073E088E993E012D0182F14DF812F64969E
:10254000E5E00C94FD3084E1E02FFF2DA8E9B3E035
:1025500001900D928A95E1F7E9CF0895A0E0B0E0EF
:10256000E4EBF2E10C94DE307C016B01042FC22F0E
:10257000211579F081E08093F4020E94252980934F
:10258000F2029093F30280E0CDB7DEB7E8E00C945E
:10259000FA30D091F402D115B1F38091F20290910A
:1025A000F3020E94B628059770F310E0000F111F88
:1025B000A801B701C6010E946D31892B31F0A80135
:1025C000B701C6010E947A31CD2F1092F4028C2FF0
:1025D000DBCF64CB08950E94BF280E94F12A2FDB35
:1025E0000E94092B4EDB0E94122B0E94152BF1DF5B
:1025F0000E942B2B0E94DD2930DBF7CF809308024D
:10260000909309020895CF93DF93EC01FB0185813C
:10261000811104C081E0DF91CF91089577D9827252
:10262000FE01E052F847EB30F105A0F7EE5FFD4CFC
:102630000C94B73099D580E0EECF811521F088D584
:10264000FACF8115E1F378D5F6CF811521F04BD281
:10265000F2CF8115E1F33DD2EECF811521F05DD2AD
:10266000EACF8115E1F34CD2E6CF811521F06FD28C
:10267000E2CF8115E1F35ED2DECF811521F005D1E5
:10268000DACF8115E1F3F2D0D6CFA0E0B0E0EBE4F1
:10269000F3E10C94DD30062FB72EE82F71110EC038
:1026A000411521F0F0E0EA5CFC4FE4916E2F7E2FA3
:1026B0008E2FCDB7DEB7E9E00C94F930411521F04B
:1026C000F0E0EA5CFC4FE49186E0089FE001112411
:1026D0002FEF30E0CE01B9010E946E30AB01C8018E
:1026E000880F991FF5E5F49FB001F59F700D112437
:1026F000861B682F660F680FC9018B199109E89F27
:10270000D001E99FB00D11248B2FB69E60011124DA
:10271000CD2CD12C89010C191D096801E09F700195
:10272000E19FF00C11244330510551F18901061B42
:102730001109B09E6001B19ED00C1124CD2CD12C7A
:102740002C193D09E29F8001E39F100D1124712F88
:10275000CC3FD34050F441305105B1F042305105E7
:1027600061F47E2FEB2F812F08C04430510579F0A2
:102770004630510511F07B2F8F2D6E2FE82F98CF0B
:102780007F2D8E2FEB2FF9CF7E2FEF2DF6CF8E2FB3
:10279000E12F7B2FF2CF41E078CF0895FCCF089551
:1027A00090910B01291B922FE091E201F091E3013E
:1027B000242F462F682F892F90E009950895CF93F5
:1027C000DF93762FE901682F842FE8DF962F672F9C
:1027D0009E01482F892FE4DFDF91CF910895493C76
:1027E00008F048ECECCF8091C003843060F4837033
:1027F00084608093C0038091C303893C18F088EC07
:102800008093C30308958C3AB0F38370886AF1CF44
:10281000EADF80EC93E0B9C985E08093C0031092B1
:10282000C1038FEF8093C20388EC8093C30310929F
:10283000C40380EC93E0A9C98091C00380FF03C06A
:1028400086958695089580E008958091C0038170F3
:1028500008959091C403933018F49F5F9093C4033C
:10286000811519F080EC93E090C9089581E0F1CFD3
:102870009091C403911519F091509093C403811560
:1028800019F080EC93E081C9089581E0F1CF809147
:10289000C40308958093C40308958091C1030895EB
:1028A0008091C20308958091C30308950F931F93ED
:1028B000CF938091C00380FF09C0E091E601F091C1
:1028C000E7010995CF911F910F910895C0910D01D6
:1028D0008091E2019091E3018C0180910E01C81773
:1028E00060F780910B019C2F981B20E040E060E096
:1028F000892F90E0F8010995CF5FEFCFEF92FF921B
:102900000F931F93CF93DF93D82FF62EE42E809151
:10291000C00380FF0CC0C0910D018091E201909135
:10292000E3018C0180910E01C81730F0BFDFCDB7F5
:10293000DEB7E6E00C94FC3080910B019C2F981BD5
:102940002E2D4F2D6D2F892F90E0F8010995CF5F27
:10295000E9CF762F9091C00390FF0BC0493C08F05F
:1029600048EC682F842F1ADF962F672F482F892F66
:10297000C5CF0895CF93DF93EC01EC81F0E0EF5CDD
:10298000FD4F4491E0ECF3E062818181E2DF8C81D4
:102990008F5F8C83DF91CF910895CF93DF93EC010C
:1029A000E0ECF3E0438162818C81D3DF8C818F5F27
:1029B0008C83DF91CF910895CF93DF93EC01209129
:1029C000C3039C81892F817090FD822F692F6270D3
:1029D00091FD622F492F447092FD422F8FDF8C8131
:1029E000019687708C83DF91CF910895A0E0B0E0CD
:1029F000ECEFF4E10C94DF30D82FE62EC42FD22E6A
:102A00009091C00390FF24C0292F26952695E22F90
:102A1000F0E0EB54FE4F8081809364039C7F943000
:102A2000E1F4842F493C08F088EC6D2F7E2DB6DE52
:102A3000962F672F482F892F61DFD093C103E09233
:102A4000C203C093C303D11419F080EC93E09DD866
:102A5000CDB7DEB7E7E00C94FB30823019F4C091BB
:102A6000C303EBCF863019F4D091C103E6CF893090
:102A7000D9F3893111F787EEF82EF20EEF2DE69596
:102A8000F0E0EF5CFC4F049110E060910F0116172D
:102A900010F00CDFD2CF109FC001112470E00E9413
:102AA0006E30862F8D0FF0FE02C08D2F861B209179
:102AB0000D01210F3327331F4C2F6E2D90DE1F5F2A
:102AC000E4CFE0ECF3E0282F438162818181885FCD
:102AD0008DCF81E0F6CFE0ECF3E0282F43816281D7
:102AE0008181885083CF81E0F6CFE0ECF3E0628112
:102AF00028E0620F08F46FEF282F4381818176CFA1
:102B000081E0F3CFE0ECF3E0628128E0621B08F49F
:102B100060E0282F4381818169CF81E0F3CFE0EC31
:102B2000F3E0438128E0420F08F44FEF282F628141
:102B300081815CCF81E0F3CFE0ECF3E0438128E0DA
:102B4000421B08F440E0282F628181814FCF81E051
:102B5000F3CF20E04BCF0F931F93CF938C01C0E0B6
:102B600060910F01C61768F0A1DEF801848192819F
:102B700090FF1DC08F5FF8018483CF911F910F914B
:102B8000089520910D012C0F3327331F70E08FEF34
:102B900090E00E948230F80184814091C303C69F77
:102BA000800D11246091C2031ADECF5FD9CF81500E
:102BB000E2CFAF92BF92DF92EF92FF920F931F93FB
:102BC000CF93DF93FC018281D1E080FDDFEFC0E095
:102BD0008091E2019091E3015C0180910F01C8179F
:102BE000B8F064DE8091F602D13009F050C0811156
:102BF00002C080910F0181508093F602DF91CF9146
:102C00001F910F91FF90EF90DF90BF90AF900895CC
:102C100080910D0190910B01891B8C0F20E040E009
:102C200060E090E0F501099504E010E0D12CEC2E75
:102C3000F12C8091F6028D0D85311CF164E10E942A
:102C40006130892F082E001C00088E150F0499F49E
:102C500080910D019701280F311D4091C30304039A
:102C6000A001112455954795559547956091C2034C
:102C70008091C103B4DDDD0E01501040D1F6CF5F6D
:102C8000ACCF87FFDFCF90910F01890FDBCF90E0B2
:102C9000019660910F0170E00E948230ADCF0F93DA
:102CA0001F93CF93C0910D018091E2019091E301B8
:102CB0008C0180910E01C81750F1C0E08091E201B3
:102CC0009091E3018C0160910F01C61768F1EEDD70
:102CD000809109019091F502980F9093F50220914F
:102CE0000A01280F20930A01121654F420910F01B3
:102CF0002150330B092E001C0008921703061CF00C
:102D0000819580930901CF911F910F910895809132
:102D10000B019C2F981B20E040E060E0892F90E0A1
:102D2000F8010995CF5FC5CFEC2FF0E070E0CF013F
:102D30000E94823020910D01820F9091F502092EA0
:102D4000001C0008E917F0059CF090910A01092E7B
:102D5000001C00089E170F065CF0282F30E0409101
:102D6000C3036091C2038091C10339DDCF5FABCF54
:102D700090910B01891B20E040E060E090E0F801B9
:102D80000995F4CFA0E0B0E0E8ECF6E10C94DC307B
:102D9000EC01FC812F2F30E0D9010E9446309B01CD
:102DA000AC010E94CA307B018C0180E290E08F1B55
:102DB0009109FC01A5E59701A8010E94CA305B01B9
:102DC0006C019F01DF010E9440309B010E94C430D2
:102DD0009B01AC012E0D3F1D401F511FB501C601C7
:102DE0000E949530022F30E00A3220F5A901440FED
:102DF000551F420F531F55954795142F1095F12CD1
:102E000085E5801BE82E80910F01F81600F14EDD5C
:102E10009C8181E0911519F0903219F48FEF809325
:102E2000080180910801890F8C83CDB7DEB7EAE0F5
:102E30000C94F83085E590E0821B930BAC01440FB5
:102E4000551F480F591FBAF64F5F5F4FD4CF8E2DD5
:102E5000F1FC802F20910D012F0D3327331F412FBF
:102E60006091C203BCDCF394CECF0F931F93CF933A
:102E7000DF938C01C0E0D0E090910F01C917D1051C
:102E80005CF014DDF8018481019681708483DF9108
:102E9000CF911F910F910895F801448180910D0108
:102EA0009E01280F311D6091C2038091C103969548
:102EB000C917D1053CF4411539F04091C3038FDCAB
:102EC0002196DACF4115C9F340E0F9CFA0E0B0E098
:102ED000ECE6F7E10C94D830FC018281882E9480D6
:102EE00081E08483E1E3F2E0A490E0EBF2E0E4919E
:102EF000C091C303C695C158D0E0CC0FDD1FED2EA5
:102F0000F12CB12C05E01FEFEA198E2F90E03C0167
:102F100080910F01B81630F0C9DCCDB7DEB7EEE016
:102F20000C94F430CB2CD12C882D833058F40B9D8D
:102F3000F0011124E950FD4F8091C10380838091FD
:102F4000C203818391101BC00C9DF0010D9DF00DFB
:102F50001124E950FD4F1382128280910D019601D8
:102F6000280F311D0C9DF0010D9DF00D1124E9502D
:102F7000FD4F42816181808132DCB394C9CF0C9DC9
:102F8000E0010D9DD00D1124C950DD4F8B818115BD
:102F9000E1F081508B83189FC00111246C8170E097
:102FA0000E946E3070E0FB01EF5CFD4F84918A1946
:102FB000189FC0011124B3010E946E308091C30399
:102FC000689FB00111247A83C8CF0E9452316FEFFD
:102FD00070E00E9482308E159F050CF0BECF882DC8
:102FE000833090F00E9452316FEF70E00E94823087
:102FF00088830E9452312091C2032695622F70E08F
:103000000E948230280F29830C9DF0010D9DF00D48
:103010001124E950FD4F12828091C303893C58F07E
:1030200088EC0C9DF0010D9DF00D1124E950FD4F31
:103030008483838392CF8431A0F784E1F2CF80919F
:10304000C0038E7F8093C00380EC93E00E94C50D87
:10305000109265032BCC8091C0038E7F8093C003B8
:103060001092650323CC1092650380916203811155
:1030700009C081E0809362038091C00381708093D6
:103080006103E9CF08956091C0036695669570E08D
:103090004BE050E080E191E00E946031892B19F40F
:1030A00081E0809365030E94252980935B039093C0
:1030B0005C0308959091C00390FF2CC0811559F1D5
:1030C0008B3258F58F73880F880F9091C0039370DF
:1030D000892B8093C003611521F080EC93E00E945E
:1030E000C50D6091C0036695669570E04BE050E0B9
:1030F00080E191E00E946031892B89F01092650394
:1031000081E080935E034091C3036091C20380918C
:10311000C1031FCD089581E0D6CF8AE2D4CFB3DFBB
:10312000EFCF682F9091C00396959695892F8F5F6A
:103130008B3208F081E0BECF81E0F3CF682F909111
:10314000C00396959695892F815009F48AE2B2CFF3
:1031500081E0F4CF61E0AECF8091C00381608093C5
:10316000C00386958695F6CF8091C00380FF01C08D
:1031700066CFF2CF60E09ECF8091630381111FC0C4
:1031800080EC93E00E94C30D8091C003843028F44A
:1031900043DB80EC93E00E94C30D25DB10926503B6
:1031A000E091E001F091E10109958091C00380FF79
:1031B00003C086958695DEDF81E0809363030895E2
:1031C0008091C00381608093C00386958695D2CF9D
:1031D0008091C00380FF01C03ECFF2CF1092620306
:1031E000809161038111ECDF4ECF0F931F93CF933A
:1031F000DF9380916503811509F441C080916403D8
:10320000E091C003E695E695E81BE0935D03853108
:1032100009F48BC008F044C0893009F47CC0A0F5E3
:10322000823009F466C0863009F46CC0C0EDD7E086
:103230000DEC13E180915E03811561F010925E0345
:103240000E94252980935B0390935C0310925F0397
:10325000109260030E94252920915B0330915C034A
:10326000821B930B8F3F9F4750F42C0F3D1F2093E1
:103270005B0330935C038BE593E0F8010995DF91E4
:10328000CF911F910F9108958F3081F6E695F0E070
:10329000EC5DFD4FE491CE2FD0E009ED15E1CACFF2
:1032A000C4EFD1E005E317E1843221F288F4C8E2EB
:1032B000D0E002EC16E1883109F4BCCF833209F08A
:1032C000B5CFEFE1F2E0C591D4910CED14E1B2CFAE
:1032D000853209F0ABCF8E2F63E00E945530E92F85
:1032E000F0E0E45EFD4FE491CE2FD0E006E617E17A
:1032F000A1CFF0E0E35DFD4FE491CE2FD0E00AEBEB
:1033000014E198CFF0E0E65DFD4FE491CE2FD0E0E0
:103310000DEC14E18FCFE695F0E0E95DFD4FE4910F
:10332000CE2FD0E00BEA15E185CFF0E0EF5DFD4F49
:10333000E491CE2FD0E00FE416E17CCF089555CF75
:1033400008950C94162708950C94240E0895E7E62A
:10335000F3E088E011928A95E9F7F2C0FC0122813E
:1033600030E02395237030E0938181E092171306BB
:1033700009F080E008950F931F93CF93DF93EC0142
:10338000162F042FEBDF811114C08A81FE01E80F94
:10339000F11D912F00FB97F994838F5F83708A83CF
:1033A00088818F5F888381E0DF91CF911F910F919A
:1033B000089580E0F9CFFC01A38182818A17B1F0E2
:1033C000AE0FBF2FB11D14968C9187FB992790F9F2
:1033D0008F77DB018C93DA019C9383818F5F8370FD
:1033E000838381818F5F818381E0089580E00895E8
:1033F000462F682F87E693E0BECFAB01BC0187E67E
:1034000093E0D9CFAEE0B0E0E8E0FAE10C94DE3032
:1034100080916603811551F01092660380916903D3
:1034200080936A038091670380936803C3D08CDF25
:10343000E82E811561F1E12C0CEF8DEFF82E1FC005
:10344000CD84DE84D982C11439F1FA820E94252903
:1034500032E0E32EBC0149815A818E2D91E00E9419
:103460001405DF82C114F1F0F8860E942529BC0101
:103470004F8158858E2D90E00E941405E12ECE01DB
:103480000D96BC010196B9DF182F8111D9CF8E2D71
:103490002E96E8E00C94FA300A830E94252923E056
:1034A000E22ED8CF0887E1CF8FE891E00197F1F7BE
:1034B00000C0000008952AB16F566F7081E001C00E
:1034C000880F6A95EAF7982F909592239AB99BB145
:1034D000892B8BB9089589B190E06F566F7002C047
:1034E000959587956A95E2F7817008950895CF9331
:1034F000DF93C0E080916F03C81750F0D5DFC0E0C4
:1035000080916F03C81760F0F1DFDF91CF910895CC
:1035100060E08C2FD0DF61E08C2FCDDFCF5FEACF72
:1035200060E08C2FD8DFD82F61E08C2FD4DFEC2F18
:10353000F0E0EF58FC4F880F8D2B8083CF5FE0CFFA
:1035400081E080936F03D3CF1F93CF93DF93182F26
:10355000440F642BC82FD0E0DE01AF58BC4FEC9174
:103560008E2F8370681711F1EE0FEE0FE62BEC93A0
:10357000EF70F0E0E851FE4FC059DC4F8081988138
:10358000890F888384301CF060E0812F31DF8881CF
:103590008D3F1CF461E0812F2BDF8881982F990FDC
:1035A000990B64E070E00E9482308883DF91CF91B4
:1035B0001F910895CF93DF93C0E080916F03C817E8
:1035C00018F0DF91CF91089561E08C2F84DFD82F20
:1035D00060E08C2F80DF4D2F682F8C2FB5DFCF5F01
:1035E000ECCF239A0895FC01EE0FFF1FE80FF91F9F
:1035F000E853FC4F6183408322830895FF920F9329
:103600001F93CF93DF93182F062FF42EC0E0D0E046
:103610002F2D402F612FCE01E6DF2196C431D10539
:10362000B9F7CDB7DEB7E5E00C94FD3035B1377FA3
:1036300025B128604FB7F89488EC93E0FC0101961F
:10364000508168E025B9000000C057FF35B9550F1B
:10365000000000C000C000C035B900C06A9591F7F5
:1036600054E08430950751F74FBF8FE594E0019700
:10367000F1F700C0000008950C94B20D089580E0A9
:103680000E94B411817008950E9471128FEF96E725
:1036900021E0815090402040E1F700C000000E94EE
:1036A0007112EDDF811519F0E7DF0C94612908959F
:1036B000EBCF0895E82FE550EF3308F062C0F0E05B
:1036C000E35FFD4C0C94B7300E94B00D81E008958B
:1036D0008091F102807F8093F10281E080937503F5
:1036E000F5CF0E94C204F2CF9091F102892F8E7F14
:1036F00090FF81608093F10280FDE8CF817F80930D
:10370000F102E4CF9091F102892F8D7F91FF8260C9
:103710008093F10281FFDACF8091F1028160EFCFD7
:103720009091F102892F8B7F92FF84608093F10248
:1037300082FDF2CFCBCF9091F102892F877F93FF4B
:1037400088608093F10283FDE7CFC0CF0E945208CA
:1037500090919603892F97FB87F980588093960361
:10376000B5CF81E00E94A1080E945208AFCF8953D3
:1037700091E001C0990F8A95EAF7892FF3CF8D5117
:10378000F7CF80E0089580E0089580E00895CF931A
:10379000C82F80917503813089F0823081F18111C9
:1037A000A6C00E94860C823209F0A3C08C2FEBDFEA
:1037B000811102C08C2F7EDFCF9108950E94860C6C
:1037C0008232A1F38C2FE1DF811519F081E0817045
:1037D000F3CFC43169F030F4CB30C1F3C03159F0CC
:1037E00080E0F5CFC93221F081E0C833C9F7EFCFCF
:1037F00010927503F5CF82E080937503E7CFCF3445
:1038000009F46BC068F4C83248F4CE3178F5C7309B
:1038100009F450C0C431F9F081E0CECFC932FBCFFA
:10382000C13509F45CC0C23509F45BC086EFC03510
:1038300099F7E0917203F0917303309769F3208157
:10384000982F990F990B820F911D91300CF44BC05A
:103850008FEF8083E1CF809174038115E9F210929C
:1038600074031092720310927303D6CFCD51C0939C
:103870007403C430C9F078F481E291E0C23031F0D1
:1038800082E291E0C33011F480E291E08093720310
:1038900090937303C1CFC53051F08BE191E0C630F6
:1038A000A9F310927403B8CF8FE191E0EFCF8CE1D0
:1038B00091E0ECCF81E08093220184E180932101AB
:1038C0008AE0809320018EE180931F0188E080933D
:1038D0001C0188E280931B019FCF8AE0AACF8FEF63
:1038E000A8CF81E0A6CF97FFB4CF108295CF1092DA
:1038F000750380E061CFA1E0B0E0E1E8FCE10C9469
:10390000E0307C01FC0160817181828193819E01A4
:103910002F5F3F4F890140E050E09D010DD2F7013C
:1039200080819181A281B3810196A11DB11D808307
:103930009183A283B38389812196E6E00C94FC30C5
:1039400084E00895E7C008950FC1089533C1089534
:103950005FC108951F93CF93DF93DAD0C0E0D0E02A
:1039600010C0412F6D2F8C2F0E94A3039C01412F6B
:103970006D2F8C2FF9D01F5F193099F7DF5FDA3088
:1039800011F010E0EECF41E060E08C2F0E94C40304
:103990009C0141E060E08C2F3BD140E060E08C2F47
:1039A0000E94C4039C0140E060E08C2F31D1CF5FC6
:1039B000C430A9F6DF91CF911F9108950F931F9303
:1039C0008A019B0140E050E0BC01CA014CD11F912B
:1039D0000F9108950F931F938A019B0140E050E0DF
:1039E000BC01CA016DD11F910F910895843028F454
:1039F0006A3018F4493008F48DC080E090E00895F2
:103A0000843018F4611101C0D5C080E090E00895C1
:103A100080E108958CD1CB0108950F931F938A0103
:103A20009B0140E050E0BC01CA0186D11F910F917B
:103A300008950F931F938A019B0140E050E0BC0161
:103A4000CA01C0D11F910F91089563D0EDC16F924B
:103A50007F928F929F92BF92CF92DF92EF92FF92CE
:103A60000F931F93CF93DF9300D000D0CDB7DEB775
:103A7000B82E803118F55BD1615071098109910927
:103A80007E012FEFE21AF20A870121E030E040E0E8
:103A900050E052D18981811111C049D13B014C01C3
:103AA000E12CF12C6701B1101BC0C982DA82EB82D4
:103AB000FC8240E0B8018BE79CE1D5D50F900F90D8
:103AC0000F900F90DF91CF911F910F91FF90EF908A
:103AD000DF90CF90BF909F908F907F906F900895D0
:103AE000C301D401C816D906EA06FB0639F321E062
:103AF00030E040E050E0B601C7011ED189819FEF60
:103B0000C91AD90AE90AF90A8111EACFBA94CBCFC6
:103B1000089508950F931F93CF93DF93843008F592
:103B20006A30F8F44930E8F4C42FD0E0CC0FDD1F40
:103B300092E1699FC00DD11D112494EB899FC00DA6
:103B4000D11D1124CE0189960E948331082FCE0108
:103B50008A960E948331902FDF91CF911F910F9110
:103B6000089580E090E0F8CF1F93CF93DF93122F5A
:103B70008430E0F46A30D0F44930C0F4C42FD0E08F
:103B8000CC0FDD1F22E1629FC00DD11D112494EBEB
:103B9000899FC00DD11D1124632FCE0189960E94EB
:103BA000A431612FCE018A960E94A431DF91CF917A
:103BB0001F910895FF920F931F93CF93DF93F42EDD
:103BC000843018F5611121C094E0899FE00111242F
:103BD000C750DD4F81E084279E01280F311D280F3B
:103BE000311DC9010E948331082F81E090E0F1105E
:103BF00002C083E090E08C0F9D1F0E948331902FC4
:103C0000CDB7DEB7E5E00C94FD3080E090E0F8CF72
:103C10000F931F93CF93DF93142F022F8430F0F470
:103C200061111CC094E0899FE0011124C750DD4F51
:103C300081E08427632F9E01280F311D280F311D3D
:103C4000C9010E94A43181E090E0111102C083E01B
:103C500090E0602F8C0F9D1F0E94A431DF91CF91C7
:103C60001F910F910895A0E0B0E0E9E3FEE10C940C
:103C7000DA306B017C01E8012C0D3D1D4E1D5F1DEE
:103C800049015A01C814D904EA04FB0429F4CDB748
:103C9000DEB7ECE00C94F63080EDC81682E0D80672
:103CA000E104F10458F4C60189960E948331899396
:103CB0008FEFC81AD80AE80AF80AE4CF80E0F7CFF5
:103CC0008F929F92AF92BF92CF92DF92EF92FF922C
:103CD0000F931F936B017C012C0D3D1D4E1D5F1D2D
:103CE00049015A01C814D904EA04FB0459F41F918C
:103CF0000F91FF90EF90DF90CF90BF90AF909F908B
:103D00008F90089580EDC81682E0D806E104F10492
:103D100030F4F8016081C60189960E94A4310F5FDA
:103D20001F4F8FEFC81AD80AE80AF80ADBCF67EFEF
:103D300070E080E090E008954F925F926F927F92E2
:103D40008F929F92AF92BF92EF92FF920F931F9329
:103D5000CF93DF934B015C0129013A01E8017B011C
:103D600087EFE81A8CEFF80A00E010E0C201D301F7
:103D7000081719071A061B0678F0DF91CF911F91DB
:103D80000F91FF90EF90BF90AF909F908F907F909A
:103D90006F905F904F900895C401D501800F911FDF
:103DA000A11DB11D873F9105A105B10548F4C701CB
:103DB000800F911F0E94833189930F5F1F4FD6CFD1
:103DC00080E0FACFA0E0B0E0E8EEFEE10C94D8305D
:103DD0006B017C0149015A013801EB01C75FDC4FDF
:103DE0008D01C401D501081719071A061B0628F012
:103DF000CDB7DEB7EEE00C94F430C601D701800FEA
:103E0000911FA11DB11D873F9105A105B10548F482
:103E1000F301E00FF11F6081CE01800F911F0E941E
:103E2000A4310F5F1F4FDDCFA0E1B0E0EAE1FFE179
:103E30000C94D630FE013196DF0180E11D928A9507
:103E4000E9F700E110E097EF492E512C612C712C1D
:103E500029E0A22E23E0B22E9E2E8F2E6201730146
:103E600081E148165104610471041CF080E1C82E00
:103E7000D12CA601B501892D982D0E949531AC0C4D
:103E8000BD1C0D2C000C00084C185D086008700863
:103E90000150104019F76096E0E10C94F230CF9396
:103EA000DF93EB0186319C4719F50E94860C9D81BA
:103EB0009115A1F08A7A91E0811101C090E0909370
:103EC0007603811549F085E30E94CF270E94330DC8
:103ED00080E0DF91CF91089589E2F6CF809176035B
:103EE000811521F085E30E94E627F0CF89E2FBCF20
:103EF00081E0EFCFCF93DF93EC01FB01858181154A
:103F000009F4CBC09E0130572332310508F0ABC015
:103F100086E993E00E94BF0DFE01E150F047E232D6
:103F2000F10520F4E45BFD4C0C94B73080919603CE
:103F300081608093960390C08091970388608093FE
:103F400097038AC0809196038260F3CF8091960395
:103F50008460EFCF809196038860EBCF80919703C8
:103F60008160EDCF809197038260E9CF80919603C5
:103F70008061DFCF809196038062DBCF80919603D2
:103F80008064D7CF0E945208809196038068D1CF79
:103F9000809196038C60CDCF809197038360CFCFC3
:103FA000809196038E7FC5CF80919703877FC7CF7F
:103FB000809196038D7FBDCF809196038B7FB9CF83
:103FC00080919603877FB5CF809197038E7FB7CF7F
:103FD000809197038D7FB3CF809196038F7EA9CF79
:103FE000809196038F7DA5CF809196038F7BA1CF83
:103FF0000E945208809196038F779BCF8091960301
:10400000837F97CF809197038C7F99CF9091960370
:10401000892F8B7F92FF8460877F92FF886089CF92
:1040200080919703982F909590FB80F990FB81F9F0
:1040300086CF90919603892F8F7B96FF806479CFEE
:104040000E94520890919603892F97FB87F9805818
:1040500070CF81E00E94C70D86E993E00E94C10DF8
:104060000E94520880E0DF91CF91089580E0F2CF66
:1040700090919603892F8F7E94FF80615ACF909103
:104080009603892F8E7F90FF816053CF9091970385
:10409000892F877F93FF886052CF81E0E4CF382F4C
:1040A00025EB3203C001112497FF04C08058910909
:1040B000892F089580589F4FFBCF80917D0380FF0B
:1040C0000DC06091200170E0660F771F60387105A8
:1040D00088F56115710581F1862F089581FF07C06C
:1040E0006091200184E0689FB0011124EFCF82FF2E
:1040F00004C06091200188E0F6CF90917C03911577
:10410000B9F060911F0180912001961728F098E086
:10411000899FB0011124DACF899FC001112423E0C7
:10412000880F991F2A95E1F770E00E948230CECF68
:1041300068E0D2CF8FE7089581E0089580917D03F4
:1041400080FF0CC060911C0170E0759567957595B6
:1041500067956115710541F1862F089581FF06C0AD
:1041600060911C0170E075956795F3CF60911C011B
:1041700082FD0BC090917B039115A1F060911B0112
:1041800080911C01961738F0682F70E06038710537
:1041900000F38FE70895899FC001112470E00E9409
:1041A0008230F4CF61E0D8CF81E00895E82FED5C54
:1041B000E33198F5F0E0E259FD4C0C94B7307DDF27
:1041C000819580938103089578DFFBCF76DF819519
:1041D00080938003089571DFFBCFB0DF809382036B
:1041E0000895ACDF8195FACFA9DF81958093830391
:1041F0000895A4DFFBCF815D990B21E001C0220F60
:104200008A95EAF780917F03822B80937F0308953C
:1042100080917D03816080937D03089580917D036B
:104220008260F9CF80917D038460F5CF4091800357
:104230008D3C59F48091810387FF0DC0109281035A
:10424000411559F410927C0308C08E3C81F4809192
:10425000810318169CF3411581F08091820390919F
:104260008303892B09F056C010927B0308958F3C7D
:1042700041F447FFF0CF10928003809181038115B4
:10428000E0CF803D19F41416B4F3E5CF909182038A
:10429000893D29F41916FCF610928203DCCF8A3D81
:1042A00019F497FFD8CFF8CF909183038B3D29F471
:1042B00097FFD1CF10928303CECF8C3D19F41916FE
:1042C000CCF3C9CF982F915D983078F4815D990B2C
:1042D00021E001C0220F8A95EAF7822F8095909104
:1042E0007F03892380937F03B6CF8D3D31F4809186
:1042F0007D038E7F80937D03AECF8E3D21F4809130
:104300007D038D7FF7CF8F3D09F0A5CF80917D0391
:104310008B7FF0CF089599D79C0190918003809175
:104320008103982B21F02093790330937A039091A5
:10433000820380918303982B21F02093770330939D
:1043400078038EE793E012C5EEE7F3E086E0119282
:104350008A95E9F710927C0310927B0310927D03FB
:104360000895FC01828181110EC0838181110BC0EF
:104370008481811108C091E08581811101C090E0A4
:10438000892F8170089581E0FCCFA6E0B0E0EBECCE
:10439000F1E20C94E13086E0EEE7F3E09E012F5F5E
:1043A0003F4FD90101900D928A95E1F71092800359
:1043B0001092810310928203109283038B819C815F
:1043C000892B022FF32E811581F080917903909132
:1043D0007A03CCD6AC0190917C039115A1F1809128
:1043E00021018417150608F43BC08D819E81892B1D
:1043F00089F08091770390917803B8D6AC019091C1
:104400007B03911509F45AC080911D01841715068C
:1044100008F462C0602F7F2D8EE793E006D68111ED
:1044200004C08EE793E09DDF811175DF86E0E02F09
:10443000FF2DAEE7B3E001900D928A95E1F7269645
:10444000E5E00C94FD30209122018AE0289F900144
:1044500011242417350748F69F5F90937C0302C010
:104460009F3FD1F71B81111551F027DE91E0111606
:104470000CF09FEF899F802D1124809380031C8175
:10448000111551F01ADE91E011160CF09FEF899F83
:10449000802D11248093810380918003811509F47C
:1044A000A4CF10918103111509F49FCFF8DD8093FB
:1044B0008003812FF4DD8093810397CF20911E012B
:1044C0008AE0289F900111242417350708F0A2CF15
:1044D0009F5F90937B0302C09F3FD1F71D81111511
:1044E00051F02CDE91E011160CF09FEF899F802D8A
:1044F0001124809382038E81182F811551F01EDEC6
:1045000091E011160CF09FEF899F802D112480936C
:10451000830380918203811509F47CCF90918303FA
:10452000192F911509F476CFBADD80938203812F7C
:10453000B6DD809383036ECFA0E0B0E0E2EAF2E262
:104540000C94DD30E82FF0E0EA5CFB4F9491B92E3B
:10455000282F26952695269530E0F901EA52FB4F43
:10456000E4908770F12C082E02C0F594E7940A9429
:10457000E2F7F901EA53FB4FC490D12C082E02C098
:10458000D594C7940A94E2F72A543B4FF901049159
:1045900010E002C0159507958A95E2F7C62FD0E086
:1045A000E0FC25C0C0FE06C086EE0E945405CE0188
:1045B000009759F5BE018B2D0E943006CE01009761
:1045C00061F5C0FC32C0E0FE06C081EE0E94DE054F
:1045D000CE010097C1F500FF05C08CE20E9446069F
:1045E0002097C9F5CDB7DEB7E9E00C94F93081EE3C
:1045F0000E945405CE010097A9F2EFE9FFE0319740
:10460000F1F700C000000197F6CFEFE9FFE0319726
:10461000F1F700C000000197CBCFEFE9FFE0319741
:10462000F1F700C000000197CACF86EE0E94DE05B8
:10463000CE01009741F2EFE9FFE03197F1F700C0BA
:1046400000000197F6CFEFE9FFE03197F1F700C0E6
:1046500000000197BECF8FE99FE00197F1F700C0FE
:1046600000002197BDCFA0E0B0E0E9E3F3E20C94B5
:10467000DD308C017B01B42EC701F8010995813032
:10468000A0F009F058C0C701F8010995C82F813082
:1046900089F4C701F80109950E9446068B2D90E028
:1046A000009709F040C0C111E7CFCDB7DEB7E9E010
:1046B0000C94F930823031F4C701F80109950E9459
:1046C0005405ECCF833031F4C701F80109950E94FD
:1046D000DE05E4CF843011F7C701F8010995C82F32
:1046E000C12CD12CDAE08C2F8053990B8A309105A4
:1046F00068F0C114D10491F2EFE9FFE03197F1F7CE
:1047000000C0000081E0C81AD108F3CFDC9D900101
:10471000DD9D300D1124820F931F6C01C701F8013C
:104720000995C82FE0CFEFE9FFE03197F1F700C01E
:1047300000000197B5CF6B2DFFDE9ECF0F931F9327
:10474000CF93DF93C42FD22FFC0185818115C9F04F
:10475000409386037AD580938403909385038C2FAE
:10476000805E883048F481E0C1FD84E0C0FD880FA0
:10477000C2FD82950E944D06DF91CF911F910F914E
:10478000089510918603141333C08091840390918F
:104790008503ECD4883C910558F5CD2FC05E1D17DC
:1047A000C1F0812F805E883048F481E011FD84E003
:1047B00010FD880F12FD82950E945206C83048F401
:1047C00081E0D1FD84E0D0FD880FD2FD82950E946A
:1047D0004D06802F0E94460681E0D1FD84E0D0FD89
:1047E000880FD2FD8295C83038F60E945206C4CF99
:1047F0008C2F805E883008F0BFCF81E0C1FD84E05F
:10480000C0FD880FC2FD8295F0CF0F93FC01CB0154
:10481000E851FC47E730F10588F5EF57FD4C0C9463
:10482000B73006E221EE41EE6AE17CE787DF80E007
:104830000F91089507E225EE45EE6BE17CE7F6CF98
:1048400006E221EE40EE68E17CE7F0CF07E225EEDC
:1048500044EE69E17CE7EACF06E221EE42EE6CE14C
:104860007CE7E4CF07E225EE46EE6DE17CE7DECFA4
:1048700008E221E045EE6EE17CE7D8CFFB018581BF
:1048800081111092860381E0D3CFCF93DF938737D6
:104890002CE7920739F088379C47D1F081E0DF910F
:1048A000CF910895FB018581811571F019D00E9487
:1048B000D0081CD0C82F17D0D82F12D04C2F6D2F56
:1048C0000E94ED0980E0EBCF0BD00E94D908F1CF18
:1048D000FB018581811511F006D0E9CF04D0F5CF19
:1048E00080912501089580912401089580912301EC
:1048F0000895A3E0B0E0EFE7F4E20C94E430CE01D9
:104900000196AC010196BC010196ABD18B81863238
:1049100039F48A81823021F481E09981913009F063
:1049200080E081702396E2E00C940031811521F043
:1049300041E062E086E2BBC14FEF6FEF8FEFFBCF4C
:1049400008950895CF92DF92EF92FF926B017C0160
:10495000F8DFB601C701CAD1FF90EF90DF90CF908A
:1049600008957ED180E0E2DF80E090E0BC01EADFE4
:104970000E94AA1C6AD881E0D9CFE2DFAED1E1DF84
:10498000B8DF811101C0EDCF08950C94E8180895A7
:104990009C01FB018581811549F0A90157574038D9
:1049A000510528F4822F53D880E0089581E00895BE
:1049B0002FEFFC012083089580E00895CF93DF93CB
:1049C000EC018881833021F138F4813071F082303C
:1049D000C1F0DF91CF9108958430D9F70E944D1432
:1049E00089830E9450148A83F4CF0E9453142FEFBE
:1049F000829FC001112468EC70E00E946E306983D0
:104A0000E8CF0E94251481110E941C148983E1CFF4
:104A10000E944714FBCFCF93DF93EC018881833052
:104A200081F138F4813069F08230F9F0DF91CF9173
:104A300008958430D9F70E945314482F6A818981E0
:104A400011C0898128EC829FC00111246FEF70E0B2
:104A50000E946E30D62F0E945014C82F0E944D1411
:104A60004D2F6C2F0E94A915E1CF8981811103C0C0
:104A70000E942B18DBCF0E94E01889810E94BA188F
:104A8000D5CF89810E944A14D1CFFC019C012E5FB1
:104A90003F4F9081983031F0993031F0973031F4B8
:104AA000C901B9CFC9018ACF0C9408148FEF808354
:104AB0000895FC012181223009F4E7CF79CF1F93BB
:104AC000CF93DF93EC01162F77DF811110C0E881BF
:104AD000E150E531C0F4F0E0E857FD4C0C94B730FC
:104AE00019828CE08A83612FCE010E94A119DF9187
:104AF000CF911F91089589818330C9F038F48130B6
:104B000061F0823091F08FEF8883EDCF8430D9F758
:104B10001A821B821C821D82E6CFA3D30E94BD3065
:104B20006A837B838C839D83DECFD7D0F7CF8A8146
:104B300090E0FE018A309105B4F63296118212821D
:104B40000196F8CF8981823029F08530E1F68A819B
:104B50001CDFC9CF6A817B818C819D810E94BD3021
:104B6000F1DEC1CF4B816A8189810E94A21C9C0128
:104B70003827232732272C833D83B5CF2C813D81D5
:104B80003227232732274B816A8189810E94A41C06
:104B9000AACF0E94AA1CA7CF612FCE018ADFA3CF84
:104BA0000E94081D89839FCF0E940A1D9C013827FF
:104BB0002327322729833A8396CF6B8170E089813E
:104BC0009A81982789279827AE014C5F5F4F0E94F2
:104BD0000D1D89CF6B8170E089819A819827892783
:104BE0009827AE014C5F5F4F0E94191D7CCF0E9439
:104BF000251D79CF0E94A01CD5CF6B8170E08981E3
:104C00009A81982789279827AE014C5F5F4F0E94B1
:104C1000DE1C69CF6B8170E089819A819827892792
:104C20009827AE014C5F5F4F0E94EA1C5CCF41E0C9
:104C30008B81811101C040E06A8189810E94A61C9C
:104C400096CF2C813D8132272327322741E08B816B
:104C5000811101C040E06A8189810E94A81C43CF74
:104C60000895EF92FF920F931F93CF93DF937C01F0
:104C70008B01EA01892B31F085E290E00E948331BB
:104C8000F70180830115110531F086E290E00E9462
:104C90008331F8018083209729F087E290E00E9419
:104CA00083318883CDB7DEB7E6E00C94FC30CF9338
:104CB000DF93C62FD42F682F85E290E00E94A431A5
:104CC0006C2F86E290E00E94A4316D2F87E290E085
:104CD0000E94A431DF91CF91089588E290E00E9474
:104CE0008331682F70E080E090E0089588E290E0E2
:104CF0000C94A43180938B0390938C030895FCD182
:104D0000982F81E0913009F080E00895E0918B03C5
:104D1000F0918C03309739F00190F081E02D3097BD
:104D200011F00995089580E00895F0CF0895E0917D
:104D30008B03F0918C03309731F00280F381E02DEA
:104D4000309709F009950895E0918B03F0918C0359
:104D5000309759F024813581232B39F026E0DC018E
:104D60002C930480F581E02D09950895E0918B0343
:104D7000F0918C03309759F026813781232B39F03D
:104D800022E0DC012C930680F781E02D099508953F
:104D9000A3E0B0E0EEECF6E20C94E430209189035D
:104DA00030918A0328173907B1F0809389039093D3
:104DB0008A03E0918B03F0918C03309761F00084BB
:104DC000F185E02D309739F023E029838A839B8396
:104DD000CE01019609952396E2E00C940031A3E000
:104DE000B0E0E5EFF6E20C94E430209187033091D7
:104DF000880328173907B1F08093870390938803BD
:104E0000E0918B03F0918C03309761F00084F18581
:104E1000E02D309739F024E029838A839B83CE01EB
:104E2000019609952396E2E00C940031E0918B0302
:104E3000F0918C03309731F00284F385E02D3097A8
:104E400009F009950895CF93DF93C0910601D091A1
:104E5000070155DF811521F08091960387FD11C070
:104E60009E012E5F3F4F96E080E09150F901408116
:104E70002F5F3F4F41118F5F9111F7CFDF91CF919E
:104E8000089520910401309105012E5F3F4F9EE16E
:104E9000EBCFCF93C82F811102C080E02EC02FDF4F
:104EA000811521F08091960387FD0FC08091060146
:104EB00090910701FC013296089620812C17F9F099
:104EC0003196E817F907C9F7E8CF8C2F86958695B4
:104ED0008695C03F10F7E0910401F0910501E80FBD
:104EE000F11D228130E0C77081E001C0880FCA95B2
:104EF000EAF7282381E0232B81F2CF91089581E006
:104F0000FCCF9C01FC01329680E09FEF4081461768
:104F100059F031969F3F19F4411101C0982F8F5FCE
:104F20008630A1F79F3F09F40895290F311D97FDA1
:104F30003A95F90162830895FC0132960896219111
:104F4000261302C0DF011E92E817F907C1F7089582
:104F5000262F269526952695603F60F4820F911D99
:104F6000FC01677021E001C0220F6A95EAF7828197
:104F7000822B82830895262F269526952695603FBD
:104F800068F4820F911DFC019DEF61FD97EF60FFBA
:104F9000959562FD92958281892382830895CF93AE
:104FA000C82FADDE6C2F811559F08091960387FFD5
:104FB00007C08091040190910501CADFCF91089547
:104FC00080910601909107019CDFF8CFCF93C82F05
:104FD00096DE6C2F811559F08091960387FF07C0EC
:104FE0008091040190910501C6DFCF9108958091D1
:104FF000060190910701A0DFF8CF81DE811571F0E5
:105000008091960387FF0AC0E0910401F0910501A9
:1050100032968EE111928A95E9F70895E0910601A2
:10502000F0910701329686E0F5CFDC01FB01119685
:105030009C9111978181981322C012968C9112979E
:10504000811519F0928189131AC013968C911397C8
:10505000811519F09381891312C015968C911597BB
:10506000811519F0958189130AC014969C919115A8
:1050700021F081E02481291303C080E001C081E098
:10508000817008950895FECF08958F5F8093290160
:10509000609126017091270180912801909129014A
:1050A000F2CF83E08093290160912601709127015E
:1050B0008091280190912901E6CFE7CF089581E002
:1050C0008093290160912601709127018091280128
:1050D00090912901D8CFF3CF089591E0811101C0BB
:1050E00090E09093280160912601709127018091B2
:1050F000280190912901C7CF8091280108958093BC
:1051000027016091260170912701809128019091DB
:105110002901B9CF809127010895809326016091DC
:105120002601709127018091280190912901ABCF30
:1051300080912601089508950895FECF0895089559
:105140000895F9CF0895CF93FADF0E947112F8DF26
:10515000C0E08C2F0E94B411892B31F4CF5FCA308C
:10516000C1F780E0CF91089581E0FCCFCF93DF932A
:10517000EC016BD08C1B9D0BDF91CF91089585B70F
:10518000806885BF85B7806885BF08951F921FB668
:105190001F9211248F939F93AF93BF9380918D03A0
:1051A000811113C08091040490910504A09106041C
:1051B000B09107044196A11DB11D80930404909302
:1051C0000504A0930604B0930704BF91AF919F918B
:1051D0008F911F901FBE1F90189580910C048430F2
:1051E00031F10E94CA0410928D0388E190E020E41E
:1051F0000FB6F894A895809360000FBE20936000CE
:1052000083B7817F846083BF83B7816083BF7894D5
:10521000889583B78E7F83BF0FB6F894A895809149
:105220006000886180936000109260000FBE089556
:105230000E9452080C94D00482E084BD93E095BD96
:105240009AEF97BD80936E0008952FB7F8948091E0
:10525000040490910504A0910604B09107042FBFA7
:1052600008952FB7F894609104047091050480911B
:105270000604909107042FBF089578941F921FB6DB
:105280001F9211248F939F93AF93BF938091040437
:1052900090910504A0910604B09107040196A11D08
:1052A000B11D8093040490930504A0930604B09369
:1052B0000704BF91AF919F918F911F901FBE1F90C8
:1052C000189581E08093E00080E28093D8001092EE
:1052D000C9008FE19EE40197F1F700C00000A7E04C
:1052E000B0EBCD018093150490931604A09317049E
:1052F000B093180488E19CE00FB6F894A8958093C9
:1053000060000FBE90936000FFCF88E19CE00FB675
:10531000F894A895809360000FBE90936000FFCF33
:105320009B01BA0190910C049430D9F48F70809352
:10533000E9009FEF8091E80085FD06C085ED8A9524
:10534000F1F700009150B1F78091E80085FF09C0A6
:1053500040E050E0C901F3D18091E8008E7780935E
:10536000E8000895603229F440E250E0BC0182E098
:10537000D7CF089543E050E0BC0184E0D1CF46E0B0
:1053800050E0BC0184E0CCCF40E250E0BC0184E0BE
:10539000C7CFCF93DF93EC01AFDE48E050E0BE0112
:1053A00081E0BEDF88E0FE01AEE8B3E001900D923F
:1053B0008A95E1F7DF91CF910895A0E2B0E0E2EEA7
:1053C000F9E202C780910C048430F1F483E0809309
:1053D000E9008091E80082FF17C08091E80090E02A
:1053E00085FF07C040E050E0BD01CE010196F3D13A
:1053F00091E08091E8008B778093E800911521F08F
:1054000060E2CE0101965BDBA096E2E0F9C68091F6
:105410000B04811107C066D3B6D38091E20084608B
:105420008093E200089510920B04089548DE81E015
:1054300054CE6091080481E0611101C080E031CE5A
:1054400090910C0481E0943009F080E060910804B0
:1054500034CE42E061EC81E0C1D242E261EC84E012
:10546000BDD242E261EC82E0B9D242E260EC83E07C
:10547000B5D290910C0481E0943009F080E0609105
:10548000080403CE80910E04893081F148F4823003
:1054900009F497C0833009F458C0813041F0089571
:1054A0008A3009F481C08B3009F469C00895809175
:1054B0000D04813A09F048C08091E800877F80930D
:1054C000E8008091110490911204892B59F060E05A
:1054D00080E090E070E0CBD18091E8008B77809302
:1054E000E800089568E08EE893E0F4CF80910D0421
:1054F000813251F580911104909112048D7F892B96
:1055000019F58091E800877F8093E8008091E8009A
:1055100082FF16C02091F3008091F200922F029733
:1055200031F48091F100813011F0863019F48091CE
:10553000F100E5DD8091E8008B778093E80082C27E
:1055400080910C048111E2CF089580910D04813A7D
:10555000D9F78091110490911204892BA9F78091B9
:10556000E800877F8093E8008091E80080FFFCCF0F
:10557000C3DD8093F1008091E8008E77DECF8091CB
:105580000D04813209F78091110490911204892B46
:10559000D9F68091E800877F8093E80053D280910C
:1055A0000F049BDD0C94520880910D04813261F64A
:1055B0008091E800877F8093E80044D280911004B6
:1055C000ACCD80910D04813A09F0BECF8091E80006
:1055D000877F8093E8008091E80080FFFCCFA8DD02
:1055E000C8CF84B7877F84BF0FB6F894A895809101
:1055F0006000886180936000109260000FBE80E8B8
:1056000090E00FB6F89480936100909361000FBE14
:1056100062CD68D2B8D2E2EEF0E08081846080830F
:10562000789415C58AE291E065CB80910C048530B1
:1056300029F480910C04853011F0FACD0895CDDD68
:1056400082DD8115B1F380910A04811591F361D057
:105650000E945208EECF08959A0140911304509190
:10566000140400C0492F50E043305105D1F078F4C4
:105670004130510509F448C04230510571F48BE5C1
:1056800090E04CE255E0F9014083518308954132A6
:105690005105E9F04232510539F180E090E040E0F7
:1056A000F2CF482F50E0813061F04230510561F077
:1056B000E8E2F5E04115510581F7849190E0AF01F2
:1056C000E2CFEAE1F5E0F9CFE6EEF4E0F6CF6330C1
:1056D000710518F7660F771FFB01EF5FFD4F4081E3
:1056E000518189E090E0CFCF63307105B0F6FB01C6
:1056F000EE0FFF1FE550FE4F4081518168507E4FF5
:10570000FB01808190E0BFCF82E190E047E855E067
:10571000BACF80E189BD82E189BD09B400FEFDCF29
:105720008091D8008F7D8093D8008091E0008260C6
:105730008093E0008091E00081FDFCCF0895AF925E
:10574000BF92CF92DF92EF92FF921F93CF93DF939E
:105750007C01EB016A0195D1182F811122C0C1147F
:10576000D10439F0F60180819181C81BD90BE80E74
:10577000F91EA12CB12C2097A1F08091E80085FDA5
:1057800020C08091E8008E778093E800C114D10496
:1057900099F0F601808191818A0D9B1D8083918310
:1057A00015E0812FDF91CF911F91FF90EF90DF9057
:1057B000CF90BF90AF90089564D18115F1F2182F6A
:1057C000F0CFF70181917F018093F10021978FEF56
:1057D000A81AB80AD0CFAF92BF92CF92DF92EF92C1
:1057E000FF921F93CF93DF937C01EB016A0149D1B4
:1057F000182F811122C0C114D10439F0F601808123
:105800009181C81BD90BE80EF91EA12CB12C209751
:10581000A1F08091E80085FD20C08091E8008B77A1
:105820008093E800C114D10499F0F6018081918140
:105830008A0D9B1D8083918315E0812FDF91CF918D
:105840001F91FF90EF90DF90CF90BF90AF900895A1
:1058500018D18115F1F2182FF0CF8091F100F701E6
:1058600081937F0121978FEFA81AB80AD0CFFC014E
:1058700080911304909114048617970720F0611506
:10588000710561F0CB0140E0009771F441110CC04B
:105890008091E80082FF36C080E008958091E800A2
:1058A0008E778093E800EECF20910C042115B1F1A2
:1058B0002530B1F12091E80023FD2EC02091E800B1
:1058C00022FDE6CF2091E80020FFDECF4091F300DB
:1058D0002091F200342F009719F02830310558F04C
:1058E00041E02830310509F040E02091E8002E77B2
:1058F0002093E800C9CF41914093F10001972F5FB9
:105900003F4FE9CF80910C04811541F0853041F083
:105910008091E80083FFBCCF81E0089582E0089584
:1059200083E00895FC01809113049091140486177C
:10593000970720F06115710561F0CB0140E00097F9
:1059400071F441110CC08091E80082FF37C080E003
:1059500008958091E8008E778093E800EECF209143
:105960000C042115B9F12530B9F12091E80023FD8F
:105970002FC02091E80022FDE6CF2091E80020FF13
:10598000DECF4091F3002091F200342F009719F000
:105990002830310558F041E02830310509F040E069
:1059A0002091E8002E772093E800C9CF44914093DE
:1059B000F100319601972F5F3F4FE8CF80910C04A3
:1059C000811541F0853041F08091E80083FFBBCF25
:1059D00081E0089582E0089583E00895982F97303C
:1059E00028F08F708093E90081E008959093E9009A
:1059F000242F762F50E0981731F07091EC00209111
:105A0000ED005091F00021FD02C09F5FE8CF309182
:105A1000EB003E7F3093EB003091ED003D7F309303
:105A2000ED003091EB0031603093EB007093EC00AF
:105A30002093ED005093F0002091EE0027FDE5CF7C
:105A400080E0089580910D0487FF13C08091E800E5
:105A500082FF06C08091E8008B778093E80008956C
:105A600080910C048111F2CF089580910C0481156E
:105A7000D9F38091E80080FFF8CF8091E8008E771D
:105A8000ECCF2091E4003091E50095E6A90120914A
:105A9000EC00822F817020FF06C08091E80080FF1B
:105AA00006C080E008952091E80022FD1AC0809190
:105AB0000C04811589F0853089F08091EB0085FD1B
:105AC0000FC02091E4003091E50042175307F9F22E
:105AD0009150E1F684E0089582E0089583E008950E
